{
  "contractName": "CryptoValentine",
  "abi": [
    {
      "constant": true,
      "inputs": [],
      "name": "mostSent",
      "outputs": [
        {
          "name": "",
          "type": "uint256"
        }
      ],
      "payable": false,
      "stateMutability": "view",
      "type": "function"
    },
    {
      "constant": true,
      "inputs": [],
      "name": "owner",
      "outputs": [
        {
          "name": "",
          "type": "address"
        }
      ],
      "payable": false,
      "stateMutability": "view",
      "type": "function"
    },
    {
      "constant": true,
      "inputs": [],
      "name": "currentText",
      "outputs": [
        {
          "name": "",
          "type": "bytes32"
        }
      ],
      "payable": false,
      "stateMutability": "view",
      "type": "function"
    },
    {
      "payable": true,
      "stateMutability": "payable",
      "type": "fallback"
    },
    {
      "constant": false,
      "inputs": [
        {
          "name": "newText",
          "type": "bytes32"
        }
      ],
      "name": "setText",
      "outputs": [
        {
          "name": "",
          "type": "bool"
        }
      ],
      "payable": true,
      "stateMutability": "payable",
      "type": "function"
    },
    {
      "constant": true,
      "inputs": [],
      "name": "getLoveLocks",
      "outputs": [
        {
          "name": "",
          "type": "bytes32[]"
        }
      ],
      "payable": false,
      "stateMutability": "view",
      "type": "function"
    },
    {
      "constant": false,
      "inputs": [],
      "name": "withdrawEther",
      "outputs": [],
      "payable": false,
      "stateMutability": "nonpayable",
      "type": "function"
    }
  ],
  "bytecode": "0x6060604052600080557f577269746520646f776e20796f7572206d65737361676521000000000000000060019060001916905533600260006101000a81548173ffffffffffffffffffffffffffffffffffffffff021916908373ffffffffffffffffffffffffffffffffffffffff1602179055506020600355341561008357600080fd5b610565806100926000396000f300606060405260043610610078576000357c0100000000000000000000000000000000000000000000000000000000900463ffffffff1680636886bf1c146100a45780637362377b146100cd5780638da5cb5b146100e2578063919ad6df1461013757806395980858146101a1578063ceb45f58146101d2575b6100a17f44656661756c7420746578742100000000000000000000000000000000000000610206565b50005b34156100af57600080fd5b6100b76102df565b6040518082815260200191505060405180910390f35b34156100d857600080fd5b6100e06102e5565b005b34156100ed57600080fd5b6100f56103bc565b604051808273ffffffffffffffffffffffffffffffffffffffff1673ffffffffffffffffffffffffffffffffffffffff16815260200191505060405180910390f35b341561014257600080fd5b61014a6103e2565b6040518080602001828103825283818151815260200191508051906020019060200280838360005b8381101561018d578082015181840152602081019050610172565b505050509050019250505060405180910390f35b34156101ac57600080fd5b6101b46104b5565b60405180826000191660001916815260200191505060405180910390f35b6101ec600480803560001916906020019091905050610206565b604051808215151515815260200191505060405180910390f35b60006102106104bb565b600054341180156102265750600354602060ff16105b156102945782600181600019169055503460008190555082816000019060001916908160001916815250506004805480600101828161026591906104d2565b9160005260206000209001600083909190915060008201518160000190600019169055505050600191506102d9565b3373ffffffffffffffffffffffffffffffffffffffff166108fc349081150290604051600060405180830381858888f1935050505015156102d457600080fd5b600091505b50919050565b60005481565b600260009054906101000a900473ffffffffffffffffffffffffffffffffffffffff1673ffffffffffffffffffffffffffffffffffffffff163373ffffffffffffffffffffffffffffffffffffffff1614151561034157600080fd5b600260009054906101000a900473ffffffffffffffffffffffffffffffffffffffff1673ffffffffffffffffffffffffffffffffffffffff166108fc3073ffffffffffffffffffffffffffffffffffffffff16319081150290604051600060405180830381858888f1935050505015156103ba57600080fd5b565b600260009054906101000a900473ffffffffffffffffffffffffffffffffffffffff1681565b6103ea6104fe565b60006103f46104fe565b60006103fe6104bb565b6004805490509350836040518059106104145750595b90808252806020026020018201604052509250600091505b6004805490508210156104ab5760048281548110151561044857fe5b906000526020600020900160206040519081016040529081600082015460001916600019168152505090508060000151838381518110151561048657fe5b906020019060200201906000191690816000191681525050818060010192505061042c565b8294505050505090565b60015481565b602060405190810160405280600080191681525090565b8154818355818115116104f9578183600052602060002091820191016104f89190610512565b5b505050565b602060405190810160405280600081525090565b61053691905b808211156105325760008082016000905550600101610518565b5090565b905600a165627a7a7230582051da17d9a4722a1ffc7d76a2c378bdda060f145d96caab813aa088f388a5b58d0029",
  "source": "pragma solidity ^0.4.18;\n\ncontract CryptoValentine {\n    uint public mostSent = 0;\n    bytes32 public currentText = bytes32(\"Write down your message!\");\n    address public owner = msg.sender;\n    uint private maxLength = 32;\n    \n    struct LoveLock {\n        // Array of strings not possible in Soldity \n        // need other option because bytes32 is just to short\n        // cut them in multiple bytes32 is possible but bad solution... \n        bytes32 message;\n    }\n\n    LoveLock[] loveLocks;\n\n    function setText(bytes32 newText) public payable returns (bool) {\n        if (msg.value > mostSent && newText.length < maxLength) {\n            currentText = newText;\n            mostSent = msg.value;\n            LoveLock memory newLoveLock;\n            newLoveLock.message = newText;\n            loveLocks.push(newLoveLock);\n            return true;\n        } else {\n            msg.sender.transfer(msg.value);\n            return false;\n        }\n    }\n\n     function getLoveLocks() public constant returns (bytes32[]) {\n        uint length = loveLocks.length;\n        bytes32[] memory messages = new bytes32[](length);\n\n        for (uint i = 0; i < loveLocks.length; i++) {\n\n            LoveLock memory currentLoveLock;\n            currentLoveLock = loveLocks[i];\n\n            messages[i] = currentLoveLock.message;\n        }\n        return (messages);\n     }\n\n    function withdrawEther() external {\n        require(msg.sender == owner);\n        owner.transfer(this.balance);\n    }\n\n    function () public payable {\n        setText(\"Default text!\");\n    }\n }\n",
  "sourcePath": "/Users/Johannes/Documents/randomProjects/demo_ethereum_cryptovalentine/contracts/CryptoValentine.sol",
  "compiler": {
    "name": "solc",
    "version": "0.4.19+commit.c4cbbb05.Emscripten.clang"
  },
  "schemaVersion": "1.0.1",
  "updatedAt": "2018-02-13T17:14:15.300Z"
}