{
  "contractName": "CryptoValentine",
  "abi": [
    {
      "constant": false,
      "inputs": [
        {
          "name": "newText",
          "type": "string"
        }
      ],
      "name": "setText",
      "outputs": [
        {
          "name": "",
          "type": "bool"
        }
      ],
      "payable": true,
      "stateMutability": "payable",
      "type": "function"
    },
    {
      "constant": true,
      "inputs": [],
      "name": "mostSent",
      "outputs": [
        {
          "name": "",
          "type": "uint256"
        }
      ],
      "payable": false,
      "stateMutability": "view",
      "type": "function"
    },
    {
      "constant": false,
      "inputs": [],
      "name": "withdrawEther",
      "outputs": [],
      "payable": false,
      "stateMutability": "nonpayable",
      "type": "function"
    },
    {
      "constant": true,
      "inputs": [],
      "name": "owner",
      "outputs": [
        {
          "name": "",
          "type": "address"
        }
      ],
      "payable": false,
      "stateMutability": "view",
      "type": "function"
    },
    {
      "constant": true,
      "inputs": [],
      "name": "currentText",
      "outputs": [
        {
          "name": "",
          "type": "string"
        }
      ],
      "payable": false,
      "stateMutability": "view",
      "type": "function"
    },
    {
      "payable": true,
      "stateMutability": "payable",
      "type": "fallback"
    }
  ],
  "bytecode": "0x606060405260008055606060405190810160405280602181526020017f50757420796f7572206f776e2074657874206865726520666f72206d6f6e657981526020017f21000000000000000000000000000000000000000000000000000000000000008152506001908051906020019061007a9291906100d1565b5033600260006101000a81548173ffffffffffffffffffffffffffffffffffffffff021916908373ffffffffffffffffffffffffffffffffffffffff160217905550603260035534156100cc57600080fd5b610176565b828054600181600116156101000203166002900490600052602060002090601f016020900481019282601f1061011257805160ff1916838001178555610140565b82800160010185558215610140579182015b8281111561013f578251825591602001919060010190610124565b5b50905061014d9190610151565b5090565b61017391905b8082111561016f576000816000905550600101610157565b5090565b90565b610535806101856000396000f30060606040526004361061006d576000357c0100000000000000000000000000000000000000000000000000000000900463ffffffff1680635d3a1f9d146100ae5780636886bf1c146101185780637362377b146101415780638da5cb5b1461015657806395980858146101ab575b6100ab6040805190810160405280600d81526020017f44656661756c7420746578742100000000000000000000000000000000000000815250610239565b50005b6100fe600480803590602001908201803590602001908080601f01602080910402602001604051908101604052809392919081815260200183838082843782019150505050505091905050610239565b604051808215151515815260200191505060405180910390f35b341561012357600080fd5b61012b6102c3565b6040518082815260200191505060405180910390f35b341561014c57600080fd5b6101546102c9565b005b341561016157600080fd5b6101696103a0565b604051808273ffffffffffffffffffffffffffffffffffffffff1673ffffffffffffffffffffffffffffffffffffffff16815260200191505060405180910390f35b34156101b657600080fd5b6101be6103c6565b6040518080602001828103825283818151815260200191508051906020019080838360005b838110156101fe5780820151818401526020810190506101e3565b50505050905090810190601f16801561022b5780820380516001836020036101000a031916815260200191505b509250505060405180910390f35b600080543411801561024d57506003548251105b15610279578160019080519060200190610268929190610464565b5034600081905550600190506102be565b3373ffffffffffffffffffffffffffffffffffffffff166108fc349081150290604051600060405180830381858888f1935050505015156102b957600080fd5b600090505b919050565b60005481565b600260009054906101000a900473ffffffffffffffffffffffffffffffffffffffff1673ffffffffffffffffffffffffffffffffffffffff163373ffffffffffffffffffffffffffffffffffffffff1614151561032557600080fd5b600260009054906101000a900473ffffffffffffffffffffffffffffffffffffffff1673ffffffffffffffffffffffffffffffffffffffff166108fc3073ffffffffffffffffffffffffffffffffffffffff16319081150290604051600060405180830381858888f19350505050151561039e57600080fd5b565b600260009054906101000a900473ffffffffffffffffffffffffffffffffffffffff1681565b60018054600181600116156101000203166002900480601f01602080910402602001604051908101604052809291908181526020018280546001816001161561010002031660029004801561045c5780601f106104315761010080835404028352916020019161045c565b820191906000526020600020905b81548152906001019060200180831161043f57829003601f168201915b505050505081565b828054600181600116156101000203166002900490600052602060002090601f016020900481019282601f106104a557805160ff19168380011785556104d3565b828001600101855582156104d3579182015b828111156104d25782518255916020019190600101906104b7565b5b5090506104e091906104e4565b5090565b61050691905b808211156105025760008160009055506001016104ea565b5090565b905600a165627a7a723058200e2bec15bf1fdaeaba6072445e247a048236f35183e65b2b4d0de822a81bfacb0029",
  "source": "pragma solidity ^0.4.18;\n\ncontract CryptoValentine {\n    uint public mostSent = 0;\n    string public currentText = \"Put your own text here for money!\";\n    address public owner = msg.sender;\n    uint private maxLength = 50;\n    \n    function setText(string newText) public payable returns (bool) {\n        if (msg.value > mostSent && bytes(newText).length < maxLength) {\n            currentText = newText;\n            mostSent = msg.value;\n            return true;\n        } else {\n            msg.sender.transfer(msg.value);\n            return false;\n        }\n    }\n\n    function withdrawEther() external {\n        require(msg.sender == owner);\n        owner.transfer(this.balance);\n    }\n\n    function () public payable{\n        setText(\"Default text!\");\n    }\n }\n",
  "sourcePath": "C:\\Users\\marcus\\Desktop\\Coding Projects\\demo_ethereum_cryptovalentine\\contracts\\CryptoValentine.sol",
  "compiler": {
    "name": "solc",
    "version": "0.4.18+commit.9cf6e910.Emscripten.clang"
  },
  "schemaVersion": "1.0.1",
  "updatedAt": "2018-02-13T19:11:12.046Z"
}